:020000044000BA
:10000000130101FE232E8100130401022326A4FE06
:100010008327C4FE23A007008327C4FE23A4070070
:10002000130000000324C1011301010267800000D6
:10003000130101FE232E8100130401022326A4FED6
:10004000130000000324C1011301010267800000B6
:10005000130101FE232E8100130401022326A4FEB6
:100060008327C4FE23A207008327C4FE1307F0FFE3
:1000700023A0E700130000000324C10113010102C3
:1000800067800000130101FE232E8100130401028A
:100090002326A4FE8327C4FE83A7470093D7070126
:1000A00093F7F70F138507000324C1011301010221
:1000B00067800000130101FE232E8100130401025A
:1000C0002326A4FE8327C4FE83A7470093D7870176
:1000D000138507000324C10113010102678000009A
:1000E000130101FE232E1100232C810013040102B1
:1000F0002326A4FE2324B4FE130000000325C4FE1F
:10010000EFF05FF893070500E38A07FE8327C4FE3C
:10011000032784FE23A0E700130000008320C10111
:10012000032481011301010267800000130101FE15
:10013000232E8100130401022326A4FE2324B4FEEF
:10014000832784FE03A7C7008327C4FE23A4E700F8
:10015000832784FE83A707001387F7FF832784FE86
:1001600083A74700939787003367F700832784FEB0
:1001700083A78700939707013367F7008327C4FE9F
:1001800023A6E700130000000324C10113010102AC
:1001900067800000130101FE232E81001304010279
:1001A0002326A4FE8327C4FE83A7070093F7270016
:1001B000B337F00093F7F70F138507000324C1014D
:1001C0001301010267800000130101FE232E81004C
:1001D000130401022326A4FE8327C4FE1307100084
:1001E00023A0E700130000000324C1011301010252
:1001F00067800000130101FE232E1100232C8100D3
:10020000130401022326A4FE8327C4FE23A00700B3
:10021000130000000325C4FEEFF0DFF7930705008D
:10022000E39A07FE13000000130000008320C101C1
:10023000032481011301010267800000130101FE04
:10024000232E8100130401022326A4FE2324B4FEDE
:10025000B72700F0032784FE23A4E700B72700F0A8
:100260001307100023A2E700B72700F00327C4FEFE
:1002700023A6E700B72700F01307100023A0E7002C
:10028000B72700F023A00700130000000324C101DA
:100290001301010267800000130101FD2326810282
:1002A00013040103232EA4FCB72700F00327C4FD89
:1002B00023A4E700B72700F023A20700B72700F028
:1002C0001307100023A0E700B72700F083A707015A
:1002D0002326F4FEB72700F023A007008327C4FEDF
:1002E000138507000324C102130101036780000086
:1002F000130101FE232E1100232C8100232A9100DB
:10030000130401022326A4FE2324B4FE2322C4FEE8
:100310002320D4FE9305A0000325C4FEEFF01FF2B6
:10032000832744FE9387470083A7070093051002A5
:1003300013850700EFF09FF0832744FE83A7070093
:100340009305000213850700EFF05FEF832784FE1B
:100350009387C70083A70700930530011385070023
:10036000EFF0DFED832784FE9387870083A70700E4
:100370009305200113850700EFF05FEC832784FECF
:100380009387470083A70700930510011385070093
:10039000EFF0DFEA832784FE83A7070093050001BF
:1003A00013850700EFF09FE9930580001305100007
:1003B000EFF0DFE81300000013059000EFF0DFED31
:1003C00093070500E38A07FE832704FE9384470012
:1003D00013051003EFF05FEC9307050023A0F40072
:1003E00013050003EFF05FEB13070500832704FEFE
:1003F00023A0E7000327C4FE93071000631AF70049
:10040000B72700401385C72CEF10901B6F00000129
:10041000B72700401385C731EF10901AB727004067
:100420001385C736EF10D019832544FEB727004047
:1004300013850737EF10503F832584FEB727004010
:1004400013858738EF109044832504FEB7270040BA
:100450001385C739EF10503DB72700401385073B80
:10046000EF101016130000008320C1010324810146
:10047000832441011301010267800000130101FE82
:10048000232E8100130401022326A4FE8327C4FE29
:1004900023A007008327C4FE23A407001300000045
:1004A0000324C1011301010267800000130101FE52
:1004B000232E8100130401022326A4FE1300000052
:1004C0000324C1011301010267800000130101FE32
:1004D000232E8100130401022326A4FE8327C4FED9
:1004E00023A207008327C4FE1307F0FF23A0E70021
:1004F000130000000324C101130101026780000002
:10050000130101FE232E8100130401022326A4FE01
:100510008327C4FE83A7470093D7070193F7F70FFC
:10052000138507000324C101130101026780000045
:10053000130101FE232E8100130401022326A4FED1
:100540008327C4FE83A7470093D78701138507003D
:100550000324C1011301010267800000130101FEA1
:10056000232E1100232C8100130401022326A4FE54
:100570002324B4FE130000000325C4FEEFF05FF84F
:1005800093070500E38A07FE8327C4FE032784FE42
:1005900023A0E700130000008320C1010324810190
:1005A0001301010267800000130101FE232E810068
:1005B000130401022326A4FE2324B4FE832784FE11
:1005C00003A7C7008327C4FE23A4E700832784FE74
:1005D00083A707001387F7FF832784FE83A74700BD
:1005E000939787003367F700832784FE83A78700EC
:1005F000939707013367F7008327C4FE23A6E7001C
:10060000130000000324C1011301010267800000F0
:10061000130101FE232E8100130401022326A4FEF0
:100620008327C4FE83A7070093F72700B337F000A2
:1006300093F7F70F138507000324C101130101028B
:1006400067800000130101FE232E810013040102C4
:100650002326A4FE8327C4FE1307100023A0E7006F
:10066000130000000324C101130101026780000090
:10067000130101FE232E1100232C8100130401021B
:100680002326A4FE8327C4FE23A007001300000036
:100690000325C4FEEFF0DFF793070500E39A07FE9A
:1006A00013000000130000008320C1010324810116
:1006B0001301010267800000130101F52326110ACE
:1006C0002324810A1304010B930780002320F4FEE6
:1006D000232204FE232404FE930750032326F4FE62
:1006E000930704FE93850700370501F0EFF0DFEB79
:1006F000B727004013854746EF10806CB7270040AE
:100700001385474BEF10C06BB72700401385475048
:10071000EF10006BB727004013854746EF10406A83
:10072000232804FC232A04FC232C04FC232E04FC91
:10073000232404FC232604FC232004FC232204FCA1
:10074000B727004013854755EF108067B74723014F
:10075000938777562326F4FCB7D7AB899387F7DEC8
:100760002324F4FCB727110093873723232EF4FCAE
:10077000B767554493877767232CF4FCB7B79988FC
:100780009387B7AB232AF4FCB7F7DDCC9387F7EF59
:100790002328F4FC930604FC130784FC930704FD50
:1007A000130607009385070013051000EFF05FB4F0
:1007B000B72700401385875AEF108060232604FC7A
:1007C000232404FC232E04FC232C04FC232A04FCF5
:1007D000232804FC930604FC130784FC930704FD00
:1007E000130607009385070013051000EFF05FB0B4
:1007F000B72700401385C75FEF10805CB7E7C46977
:100800009387870D2326F4FCB7077B6A93870743FA
:100810002324F4FCB7B7CDD893870778232EF4FCB4
:10082000B7C7B4709387A755232CF4FCB7678681AC
:100830009387A75A232AF4FCB7E7020D9387A7FDF5
:100840002328F4FC930604FC130784FC930704FD9F
:10085000130607009385070013051000EFF05FA94A
:10086000B727004013850765EF108055B7B7C6431B
:10087000938767252326F4FCB7E79DD79387877E68
:100880002324F4FCB7B7CDD893870778232EF4FC44
:10089000B7C7B4709387A755232CF4FCB76786813C
:1008A0009387A75A232AF4FCB7E7020D9387A7FD85
:1008B0002328F4FC930604FC130784FC930704FD2F
:1008C000130607009385070013050000EFF05FA2F1
:1008D000B727004013854746EF10804EB7270040EA
:1008E0001385476AEF10C04DB72700401385475066
:1008F000EF10004DB727004013854746EF10404CDE
:10090000232804FA232A04FA232C04FA232E04FAB7
:10091000232004FA232204FA232404FA232604FAC7
:10092000232804F8232A04F8232C04F8232E04F89F
:10093000B72700401385476FEF108048B73734332F
:10094000938767532326F4FAB737303993872713F1
:100950002324F4FAB7373635938787732322F4FAC2
:10096000B7373231938747332320F4FAB737363716
:1009700093874753232EF4FAB747303193878793F1
:10098000232CF4FAB737343593872733232AF4FA24
:10099000B7373839938767732328F4FA930604F935
:1009A000130704FA930704FB130607009385070057
:1009B00013051000EF00504DB727004013858774D2
:1009C000EF100040B7E71EFD9387476B2326F4FA2C
:1009D000B7C72FBD938757852324F4FAB737286408
:1009E0009387A7182322F4FAB7976F6E938737730C
:1009F0002320F4FAB737343393876753232EF4FA5E
:100A0000B737303993872713232CF4FAB7373635A5
:100A100093878773232AF4FAB737323193874733A2
:100A20002328F4FA930604F9130704FA930704FB46
:100A3000130607009385070013050000EF00D0445C
:100A4000B72700401385C779EF108037B717937326
:100A50009387A7722326F4FAB7873DE9938717E1B6
:100A60002324F4FAB7A7402E938767F92322F4FAD8
:100A7000B7C7C16B938727EE2320F4FAB757CF0986
:100A80009387C7F3232EF4FAB717F7AB93878758EA
:100A9000232CF4FAB7D7AE289387672A232AF4FACF
:100AA000B7177E2B938767512328F4FA930604F92E
:100AB000130704FA930704FB130607009385070046
:100AC00013051000EF00503CB72700401385077F47
:100AD000EF10002FB7F76624938777F92326F4FAEF
:100AE000B7D79EA8938737AF2324F4FAB7377A0D88
:100AF000938707662322F4FAB787D73A938747BBD1
:100B00002320F4FAB757CF099387C7F3232EF4FABB
:100B1000B717F7AB93878758232CF4FAB7D7AE28CB
:100B20009387672A232AF4FAB7177E2B9387675196
:100B30002328F4FA930604F9130704FA930704FB35
:100B4000130607009385070013050000EF00D0335C
:100B5000B737004013854784EF108026232804F61A
:100B6000232A04F6232C04F6232E04F6232004F86B
:100B7000232204F8232404F8232604F8B7179373D8
:100B80009387A7722326F4FAB7873DE9938717E185
:100B90002324F4FAB7A7402E938767F92322F4FAA7
:100BA000B7C7C16B938727EE2320F4FAB7E7140980
:100BB000938747FF2326F4F8B717982D9387370AB2
:100BC0002324F4F8B717613B9387778D2322F4F839
:100BD000B737351F938777C02320F4F8B7777D8523
:100BE00093871778232EF4F6B7B7732B938707EF05
:100BF000232CF4F6B777CA159387E71B232AF4F65C
:100C0000B7F73D60938707B12328F4F6930604F9FC
:100C1000130704FA930704F71306070093850700E8
:100C200013051000EF00904CB73700401385C78ABA
:100C3000EF100019B787B13D9387871F2326F4FA79
:100C4000B7674B069387E7A72324F4FAB7A7D2B573
:100C50009387C7032322F4FAB7D7EEF39387D71B02
:100C60002320F4FAB7E71409938747FF2326F4F803
:100C7000B717982D9387370A2324F4F8B717613BE9
:100C80009387778D2322F4F8B737351F938777C082
:100C90002320F4F8B7777D8593871778232EF4F611
:100CA000B7B7732B938707EF232CF4F6B777CA15E2
:100CB0009387E71B232AF4F6B7F73D60938707B1C4
:100CC0002328F4F6930604F9130704FA930704F7AC
:100CD000130607009385070013050000EF0010417D
:100CE000B737004013854791EF10800DB7270040BC
:100CF00013854750EF10C00CB727004013854746B7
:100D0000EF10000C232204F6232404F6232604F615
:100D1000232E04F4232004F6232A04F4232C04F4C1
:100D2000B72700401385476FEF108009B777744CE1
:100D3000938777E62320F4F6B76779759387E756AC
:100D4000232EF4F4B7776546938757462326F4F6A7
:100D5000B767486C9387D7362324F4F6B77700003B
:100D6000938737572322F4F6930644F51307C4F507
:100D7000930744F613060700938507001305000048
:100D8000EF000047B727004013858774EF1040033A
:100D9000B7071D0E9387470D2320F4F6B7B76BE412
:100DA0009387C799232EF4F4B77765469387574600
:100DB0002326F4F6B767486C9387D7362324F4F6D6
:100DC000B7770000938737572322F4F6930644F54C
:100DD0001307C4F5930744F613060700938507002D
:100DE00013051000EF00C040B72700401385C779F6
:100DF000EF00107DB7776546938757462320F4F6BA
:100E0000B7575F6C93873755232EF4F4232604F6E7
:100E1000232404F6930710002322F4F6930644F5E6
:100E20001307C4F5930744F61306070093850700DC
:100E300013050000EF00C03BB72700401385077F74
:100E4000EF001078B7F74693938767082320F4F6EE
:100E5000B7D7B1B09387479B232EF4F4232604F62B
:100E6000232404F6930710002322F4F6930644F596
:100E70001307C4F5930744F613060700938507008C
:100E800013051000EF00C03693070000138507001C
:100E90008320C10A0324810A1301010B678000002B
:100EA000130101FF23268100130401011300000038
:100EB0000324C1001301010167800000130101FE3A
:100EC000232E8100130401022326A4FE8327C4FEDF
:100ED00023A007008327C4FE23A4070013000000FB
:100EE0000324C1011301010267800000130101FE08
:100EF000232E8100130401022326A4FE1300000008
:100F00000324C1011301010267800000130101FEE7
:100F1000232E8100130401022326A4FE8327C4FE8E
:100F200023A207008327C4FE1307F0FF23A0E700D6
:100F3000130000000324C1011301010267800000B7
:100F4000130101FE232E8100130401022326A4FEB7
:100F50008327C4FE83A7470093D7070193F7F70FB2
:100F6000138507000324C1011301010267800000FB
:100F7000130101FE232E8100130401022326A4FE87
:100F80008327C4FE83A7470093D7870113850700F3
:100F90000324C1011301010267800000130101FE57
:100FA000232E1100232C8100130401022326A4FE0A
:100FB0002324B4FE130000000325C4FEEFF05FF805
:100FC00093070500E38A07FE8327C4FE032784FEF8
:100FD00023A0E700130000008320C1010324810146
:100FE0001301010267800000130101FE232E81001E
:100FF000130401022326A4FE2324B4FE832784FEC7
:1010000003A7C7008327C4FE23A4E700832784FE29
:1010100083A707001387F7FF832784FE83A7470072
:10102000939787003367F700832784FE83A78700A1
:10103000939707013367F7008327C4FE23A6E700D1
:10104000130000000324C1011301010267800000A6
:10105000130101FE232E8100130401022326A4FEA6
:101060008327C4FE83A7070093F72700B337F00058
:1010700093F7F70F138507000324C1011301010241
:1010800067800000130101FE232E8100130401027A
:101090002326A4FE8327C4FE1307100023A0E70025
:1010A000130000000324C101130101026780000046
:1010B000130101FE232E1100232C810013040102D1
:1010C0002326A4FE8327C4FE23A0070013000000EC
:1010D0000325C4FEEFF0DFF793070500E39A07FE50
:1010E00013000000130000008320C10103248101CC
:1010F0001301010267800000130101FE232E81000D
:10110000130401022326A4FE2324B4FEB73700F003
:1011100093870780032784FE23A6E700B73700F0F4
:101120009387078023A20700B73700F093870780D3
:101130001307100023A4E700B73700F09387078058
:101140000327C4FE23A8E700B73700F09387078082
:1011500023A00700B73700F093870780130710001C
:1011600023A0E700130000000324C10113010102C2
:1011700067800000130101FD23268102130401038F
:10118000232EA4FCB73700F0938707800327C4FD04
:1011900023A6E700B73700F09387078023A4070052
:1011A000B73700F0938707801307100023A2E700EA
:1011B000B73700F09387078023A00700B73700F008
:1011C0009387078083A747012326F4FEB73700F0F3
:1011D000938707801307100023A0E7008327C4FE2E
:1011E000138507000324C102130101036780000077
:1011F000130101FE232E1100232C8100232A9100CC
:1012000013040102930705002324B4FE2322C4FE25
:101210002320D4FEA307F4FE8347F4FE639A07005D
:101220009305800013050000EFF01FED6F00000133
:101230009305800013051000EFF01FEC832744FE98
:101240009387470083A70700930550001385070085
:10125000EFF09FEA832744FE83A707009305400031
:1012600013850700EFF05FE9832784FE93878700EB
:1012700083A707009305300013850700EFF0DFE731
:10128000832784FE9387470083A7070093052000E8
:1012900013850700EFF05FE6832784FE83A707002E
:1012A0009305100013850700EFF01FE5930500007C
:1012B00013051000EFF05FE4130000001305600059
:1012C000EFF05FEB93070500E38A07FE832704FE38
:1012D0009384470013057000EFF0DFE993070500E2
:1012E00023A0F40013056000EFF0DFE8130705000A
:1012F000832704FE23A0E7008347F4FE639A0700D8
:10130000B73700401385879CEF00902B6F000001DA
:10131000B7370040138587A1EF00902A832544FE4C
:10132000B7370040138587A6EF001050832584FE51
:10133000B7370040138547A8EF00105E832504FEF1
:10134000B7370040138547A9EF00104EB73700406C
:10135000138587AAEF00D026130000008320C10167
:1013600003248101832441011301010267800000ED
:10137000130101FE232E8100130401022326A4FE83
:101380008327C4FE23A007008327C4FE23A40700ED
:10139000130000000324C101130101026780000053
:1013A000130101FE232E8100130401022326A4FE53
:1013B000130000000324C101130101026780000033
:1013C000130101FE232E8100130401022326A4FE33
:1013D0008327C4FE23A207008327C4FE1307F0FF60
:1013E00023A0E700130000000324C1011301010240
:1013F00067800000130101FE232E81001304010207
:101400002326A4FE8327C4FE83A7470093D70701A2
:1014100093F7F70F138507000324C101130101029D
:1014200067800000130101FE232E810013040102D6
:101430002326A4FE8327C4FE83A7470093D78701F2
:10144000138507000324C101130101026780000016
:10145000130101FE232E1100232C8100130401022D
:101460002326A4FE2324B4FE130000000325C4FE9B
:10147000EFF05FF893070500E38A07FE8327C4FEB9
:10148000032784FE23A0E700130000008320C1018E
:10149000032481011301010267800000130101FE92
:1014A000232E8100130401022326A4FE2324B4FE6C
:1014B000832784FE03A7C7008327C4FE23A4E70075
:1014C000832784FE83A707001387F7FF832784FE03
:1014D00083A74700939787003367F700832784FE2D
:1014E00083A78700939707013367F7008327C4FE1C
:1014F00023A6E700130000000324C1011301010229
:1015000067800000130101FE232E810013040102F5
:101510002326A4FE8327C4FE83A7070093F7270092
:10152000B337F00093F7F70F138507000324C101C9
:101530001301010267800000130101FE232E8100C8
:10154000130401022326A4FE8327C4FE1307100000
:1015500023A0E700130000000324C10113010102CE
:1015600067800000130101FE232E1100232C81004F
:10157000130401022326A4FE8327C4FE23A0070030
:10158000130000000325C4FEEFF0DFF7930705000A
:10159000E39A07FE13000000130000008320C1013E
:1015A000032481011301010267800000130101FE81
:1015B000232E8100130401022326A4FE2324B4FE5B
:1015C000B72700F093870740032784FE23A4E70092
:1015D000B72700F0938707401307100023A2E70006
:1015E000B72700F0938707400327C4FE23A6E70030
:1015F000B72700F0938707401307100023A0E700E8
:10160000B72700F09387074023A0070013000000CE
:101610000324C1011301010267800000130101FDD1
:101620002326810213040103232EA4FCB72700F014
:10163000938707400327C4FD23A4E700B72700F0E2
:101640009387074023A20700B72700F0938707403E
:101650001307100023A0E700B72700F09387074087
:1016600083A707012326F4FEB72700F093870740DE
:1016700023A007008327C4FE138507000324C102AB
:101680001301010367800000130101FD23261102ED
:1016900023248102232291021304010393070500EE
:1016A000232CB4FC232AC4FC2328D4FCA30FF4FC71
:1016B0009305700113050000EFF05FEF93056001E3
:1016C00013050000EFF09FEE930550011305000095
:1016D000EFF0DFED9305400113050000EFF01FED83
:1016E000832784FD9387C70083A7070093053001F4
:1016F00013850700EFF09FEB832784FD9387870016
:1017000083A707009305200113850700EFF01FEA68
:10171000832784FD9387470083A707009305100163
:1017200013850700EFF09FE8832784FD83A7070058
:101730009305000113850700EFF05FE79305A00014
:1017400013050000EFF09FE69305800013051000DD
:10175000EFF0DFE51300000013059000EFF01FEC41
:1017600093070500E38A07FE832744FD9387C7009C
:1017700083A707009305300213850700EFF01FE3EE
:10178000832744FD9387870083A7070093052002E2
:1017900013850700EFF09FE1832744FD93874700FF
:1017A00083A707009305100213850700EFF01FE0E1
:1017B000832744FD83A707009305000213850700D4
:1017C000EFF0DFDEA30704FE0347F4FD93071000EC
:1017D0006318F70093071000A307F4FE6F00800062
:1017E000A30704FE8347F4FE9305A00013850700BA
:1017F000EFF0DFDB9305800013052000EFF01FDB27
:101800001300000013059000EFF05FE1930705005F
:10181000E38A07FE832704FD9384C7001305300382
:10182000EFF0DFDF9307050023A0F400832704FD1A
:101830009384870013052003EFF05FDE9307050014
:1018400023A0F400832704FD9384470013051003AD
:10185000EFF0DFDC9307050023A0F400130500037D
:10186000EFF0DFDB13070500832704FD23A0E7006B
:101870000347F4FD93071000631AF700B7370040E1
:101880001385C7B5EF00C0536F000001B7370040A4
:101890001385C7BAEF00C052832544FDB737004017
:1018A0001385C7BFEF00807E832584FDB7370040D6
:1018B000138587C1EF00807D832504FDB737004085
:1018C0001385C7C2EF00807CB7370040138507C47B
:1018D000EF00004F130000008320C10203248102A7
:1018E000832441021301010367800000130101FDFD
:1018F00023261102232481022322910213040103CF
:1019000093070500232CB4FC232AC4FC2328D4FC11
:10191000A30FF4FC832784FD9387C70183A70700E7
:101920009305700113850700EFF05FC8832784FDDE
:101930009387870183A7070093056001138507003C
:10194000EFF0DFC6832784FD9387470183A7070055
:101950009305500113850700EFF05FC5832784FDD1
:101960009387070183A707009305400113850700AC
:10197000EFF0DFC3832784FD9387C70083A70700A9
:101980009305300113850700EFF05FC2832784FDC4
:101990009387870083A7070093052001138507001D
:1019A000EFF0DFC0832784FD9387470083A70700FC
:1019B0009305100113850700EFF05FBF832784FDB7
:1019C00083A707009305000113850700EFF01FBEF2
:1019D0009305A00013052000EFF05FBD9305800084
:1019E00013051000EFF09FBC1300000013059000DA
:1019F000EFF0DFC293070500E38A07FE832744FD6B
:101A00009387C70083A7070093053002138507005B
:101A1000EFF0DFB9832744FD9387870083A7070092
:101A20009305200213850700EFF05FB8832744FD7C
:101A30009387470083A707009305100213850700CB
:101A4000EFF0DFB6832744FD83A70700930500026C
:101A500013850700EFF09FB5A30704FE0347F4FDCD
:101A6000930710006318F70093073000A307F4FEF4
:101A70006F00C00093072000A307F4FE8347F4FE25
:101A80009305A00013850700EFF05FB29305800077
:101A900013052000EFF09FB1130000001305900024
:101AA000EFF0DFB793070500E38A07FE832704FD05
:101AB0009384C70013053003EFF05FB6930705006A
:101AC00023A0F400832704FD9384870013052003DB
:101AD000EFF0DFB49307050023A0F400832704FD93
:101AE0009384470013051003EFF05FB393070500DD
:101AF00023A0F40013050003EFF05FB21307050005
:101B0000832704FD23A0E7000347F4FD930710009B
:101B1000631AF700B7370040138547C9EF00402A22
:101B20006F000001B7370040138587CFEF004029D1
:101B3000832544FDB73700401385C7BFEF0000552C
:101B4000832584FDB73700401385C7D5EF00406477
:101B5000832504FDB73700401385C7C2EF0000534B
:101B6000B7370040138507D7EF008025130000002A
:101B70008320C10203248102832441021301010353
:101B800067800000130101FE232E8100130401026F
:101B90002326A4FE8327C4FE23A007008327C4FEB8
:101BA00023A40700130000000324C1011301010254
:101BB00067800000130101FE232E8100130401023F
:101BC0002326A4FE130000000324C1011301010217
:101BD00067800000130101FE232E8100130401021F
:101BE0002326A4FE8327C4FE23A207008327C4FE66
:101BF0001307F0FF23A0E700130000000324C10136
:101C00001301010267800000130101FE232E8100F1
:101C1000130401022326A4FE8327C4FE83A74700E2
:101C200093D7070193F7F70F138507000324C1012A
:101C30001301010267800000130101FE232E8100C1
:101C4000130401022326A4FE8327C4FE83A74700B2
:101C500093D78701138507000324C10113010102F3
:101C600067800000130101FE232E1100232C810048
:101C7000130401022326A4FE2324B4FE1300000053
:101C80000325C4FEEFF05FF893070500E38A07FE23
:101C90008327C4FE032784FE23A0E700130000006F
:101CA0008320C10103248101130101026780000028
:101CB000130101FE232E8100130401022326A4FE3A
:101CC0002324B4FE832784FE03A7C7008327C4FE12
:101CD00023A4E700832784FE83A707001387F7FF69
:101CE000832784FE83A74700939787003367F70015
:101CF000832784FE83A78700939707013367F70044
:101D00008327C4FE23A6E700130000000324C101BB
:101D10001301010267800000130101FE232E8100E0
:101D2000130401022326A4FE8327C4FE83A7070011
:101D300093F72700B337F00093F7F70F13850700E9
:101D40000324C1011301010267800000130101FE99
:101D5000232E8100130401022326A4FE8327C4FE40
:101D60001307100023A0E700130000000324C101A3
:101D70001301010267800000130101FE232E1100F0
:101D8000232C8100130401022326A4FE8327C4FE12
:101D900023A00700130000000325C4FEEFF0DFF7C7
:101DA00093070500E39A07FE1300000013000000EC
:101DB0008320C10103248101130101026780000017
:101DC000130101FE232E1100232C810013040102B4
:101DD0002326A4FE6F0000028327C4FE138717008A
:101DE0002326E4FE83C7070093850700370501F02B
:101DF000EFF05FE78327C4FE83C70700E39E07FC7D
:101E000013000000130000008320C101032481019E
:101E10001301010267800000130101FC232E11024F
:101E2000232C8102130401042326A4FC232604FE90
:101E3000232E04FC232004FE8327C4FC93F7F70021
:101E4000373700401307C7E3B307F70003C707009E
:101E50008327C4FE930604FFB387F6002386E7FEBC
:101E60008327C4FE938717002326F4FE8327C4FC30
:101E700093D747002326F4FC8327C4FCE39E07FA8C
:101E80000327C4FE9307700063CEE7029307700038
:101E90002324F4FE6F00400213070003832784FE0F
:101EA000930604FFB387F6002386E7FE832784FEAC
:101EB0009387F7FF2324F4FE032784FE8327C4FEC1
:101EC000E35CF7FC930730002322F4FE6F00C002AE
:101ED000832744FE130704FFB307F70083C7C7FE39
:101EE00093850700370501F0EFF0DFD7832744FE25
:101EF0009387F7FF2322F4FE832744FEE3DA07FCEF
:101F0000B7370040138587E3EFF09FEB1300000025
:101F10008320C103032481031301010467800000AF
:101F2000130101FC232E1102232C8102130401044E
:101F30002326A4FC232604FE232E04FC232004FED7
:101F40008327C4FC93F7F700373700401307C7E334
:101F5000B307F70003C707008327C4FE930604FFF7
:101F6000B387F6002386E7FE8327C4FE9387170016
:101F70002326F4FE8327C4FC93D747002326F4FCD2
:101F80008327C4FCE39E07FA0327C4FE930770006F
:101F900063CEE702930770002324F4FE6F00400233
:101FA00013070003832784FE930604FFB387F6001C
:101FB0002386E7FE832784FE9387F7FF2324F4FE1E
:101FC000032784FE8327C4FEE35CF7FC93077000BD
:101FD0002322F4FE6F00C002832744FE130704FF90
:101FE000B307F70083C7C7FE93850700370501F0E5
:101FF000EFF05FC7832744FE9387F7FF2322F4FEA9
:10200000832744FEE3DA07FCB7370040138587E3F4
:10201000EFF01FDB130000008320C10303248103C2
:102020001301010467800000130101FE232E11003B
:10203000232C8100130401022326A4FE2324B4FED2
:102040000325C4FEEFF0DFD7832784FE9387470084
:1020500083A7070013850700EFF09FEC832784FE1A
:1020600083A7070013850700EFF09FEBB737004009
:10207000138507E5EFF0DFD4130000008320C101D2
:10208000032481011301010267800000130101FE96
:10209000232E1100232C8100130401022326A4FE09
:1020A0002324B4FE0325C4FEEFF09FD1832784FED2
:1020B0009387C70083A7070013850700EFF05FE64B
:1020C000832784FE9387870083A707001385070073
:1020D000EFF01FE5832784FE9387470083A707005F
:1020E00013850700EFF0DFE3832784FE83A7070053
:1020F00013850700EFF0DFE2B7370040138507E5EF
:10210000EFF01FCC130000008320C10103248101E4
:102110001301010267800000130101FE232E11004C
:10212000232C8100130401022326A4FE2324B4FEE1
:102130000325C4FEEFF0DFC8832784FE9387870062
:1021400083A7070013850700EFF09FDD832784FE38
:102150009387470083A7070013850700EFF05FDC34
:10216000832784FE83A7070013850700EFF0DFCAEB
:10217000B7370040138507E5EFF09FC41300000058
:102180008320C10103248101130101026780000043
:10219000130101FE232E1100232C810013040102E0
:1021A0002326A4FE2324B4FE0325C4FEEFF05FC162
:1021B000832784FE9387C70183A707001385070041
:1021C000EFF01FD6832784FE9387870183A707003C
:1021D00013850700EFF0DFD4832784FE9387470140
:1021E00083A7070013850700EFF09FD3832784FEA2
:1021F0009387070183A7070013850700EFF05FD2DD
:10220000832784FE9387C70083A7070013850700F1
:10221000EFF01FD1832784FE9387870083A70700F1
:1022200013850700EFF0DFCF832784FE93874700F5
:1022300083A7070013850700EFF09FCE832784FE56
:1022400083A7070013850700EFF09FCDB737004045
:10225000138507E5EFF0DFB6130000008320C1010E
:0C226000032481011301010267800000CB
:10226C00600000002003000070000000F00200007D
:10227C00020000000D0200000C000000EC01000048
:10228C0008000000460000001000000040000000A4
:10229C0002000000300000000800000028000000D0
:1022AC0008000000B800000010000000B0000000A2
:1022BC000200000082000000060000007E0000000A
:1022CC003D3D3D3D3D3D3D3D3D3D3D3D3D3D3D3D32
:1022DC003D3D3D3D3D3D3D3D3D3D3D3D3D505249EE
:1022EC004E434520454E435259505454494F4E3D50
:1022FC003D3D3D3D3D3D3D3D3D3D3D3D3D3D3D3D02
:10230C003D3D3D3D3D3D3D3D3D3D3D3D0D0A0000CE
:10231C003D3D3D3D3D3D3D3D3D3D3D3D3D3D3D3DE1
:10232C003D3D3D3D3D3D3D3D3D3D3D3D3D5052499D
:10233C004E4345204445435259505454494F4E3D09
:10234C003D3D3D3D3D3D3D3D3D3D3D3D3D3D3D3DB1
:10235C003D3D3D3D3D3D3D3D3D3D3D3D0D0A00007E
:10236C000D0A0000504C41494E5F544558542028EA
:10237C0036342D62697429203A2000004B455920CF
:10238C00283132382D62697429203A20000000006F
:10239C00524553554C54202836342D6269742920EB
:1023AC003A2000000D0A3D3D3D3D3D3D3D3D3D3D4E
:1023BC003D3D3D3D3D3D3D3D3D3D3D3D3D3D3D3D41
:1023CC003D3D3D3D3D3D3D3D3D3D3D3D3D3D3D3D31
:1023DC003D3D3D3D3D3D3D3D3D3D3D3D3D3D3D3D21
:1023EC003D3D3D3D3D3D3D3D3D3D3D3D3D3D3D3D11
:1023FC003D3D0D0A000000006000000020030000BD
:10240C0070000000F0020000020000000D0200004D
:10241C000C000000EC010000080000004600000069
:10242C00100000004000000002000000300000001E
:10243C00080000002800000008000000B8000000A0
:10244C0010000000B000000002000000820000003C
:10245C00060000007E0000003D3D3D3D3D3D3D3D04
:10246C003D3D3D3D3D3D3D3D3D3D3D3D3D3D3D3D90
:10247C003D3D3D3D3D3D3D3D3D3D3D3D3D3D3D3D80
:10248C003D3D3D3D3D3D3D3D3D3D3D3D3D3D3D3D70
:10249C003D3D3D3D3D3D3D3D3D3D3D3D3D3D3D3D60
:1024AC003D3D3D3D0D0A00003D3D3D3D3D3D3D3D2D
:1024BC003D3D3D3D3D3D3D3D3D3D3D3D3D3D3D3D40
:1024CC003D3D3D3D3D3D3D5052494E4345205445DB
:1024DC0053543D3D3D3D3D3D3D3D3D3D3D3D3D3DF3
:1024EC003D3D3D3D3D3D3D3D3D3D3D3D3D3D3D3D10
:1024FC003D3D3D3D0D0A00003D3D3D3D3D3D3D3DDD
:10250C003D3D3D3D3D3D3D3D3D3D3D3D3D3D3D3DEF
:10251C003D4C4520445559204C494E48202D2031E6
:10252C00383230303135372D3D3D3D3D3D3D3D3D23
:10253C003D3D3D3D3D3D3D3D3D3D3D3D3D3D3D3DBF
:10254C003D3D3D3D0D0A00000D0A3D3D3D3D3D3DEF
:10255C003D3D3D3D3D3D3D3D3D3D3D3D3D3D3D3D9F
:10256C003D3D3D3D3D3D3D3D3D3D3D3D3D5445535A
:10257C005420313D3D3D3D3D3D3D3D3D3D3D3D3D91
:10258C003D3D3D3D3D3D3D3D3D3D3D3D3D3D3D3D6F
:10259C003D3D3D3D3D3D0D0A000000000D0A3D3D19
:1025AC003D3D3D3D3D3D3D3D3D3D3D3D3D3D3D3D4F
:1025BC003D3D3D3D3D3D3D3D3D3D3D3D3D3D3D3D3F
:1025CC003D5445535420323D3D3D3D3D3D3D3D3D0B
:1025DC003D3D3D3D3D3D3D3D3D3D3D3D3D3D3D3D1F
:1025EC003D3D3D3D3D3D3D3D3D3D0D0A0000000066
:1025FC000D0A3D3D3D3D3D3D3D3D3D3D3D3D3D3D62
:10260C003D3D3D3D3D3D3D3D3D3D3D3D3D3D3D3DEE
:10261C003D3D3D3D3D5445535420333D3D3D3D3DB9
:10262C003D3D3D3D3D3D3D3D3D3D3D3D3D3D3D3DCE
:10263C003D3D3D3D3D3D3D3D3D3D3D3D3D3D0D0A21
:10264C00000000000D0A3D3D3D3D3D3D3D3D3D3D05
:10265C003D3D3D3D3D3D3D3D3D3D3D3D3D3D3D3D9E
:10266C003D3D3D3D3D3D3D3D3D5445535420343D68
:10267C003D3D3D3D3D3D3D3D3D3D3D3D3D3D3D3D7E
:10268C003D3D3D3D3D3D3D3D3D3D3D3D3D3D3D3D6E
:10269C003D3D0D0A000000003D3D3D3D3D3D3D3DB5
:1026AC003D3D3D3D3D3D3D3D3D3D3D3D3D3D3D3D4E
:1026BC003D3D3D3D3D3D3D41455320544553543DED
:1026CC003D3D3D3D3D3D3D3D3D3D3D3D3D3D3D3D2E
:1026DC003D3D3D3D3D3D3D3D3D3D3D3D3D3D3D3D1E
:1026EC003D3D3D3D0D0A00000D0A3D3D3D3D3D3D4E
:1026FC003D3D3D3D3D3D3D3D3D3D3D3D3D3D3D3DFE
:10270C003D3D3D3D3D3D3D3D3D3D3D5445535420BE
:10271C00313D3D3D3D3D3D3D3D3D3D3D3D3D3D3DE9
:10272C003D3D3D3D3D3D3D3D3D3D3D3D3D3D3D3DCD
:10273C003D3D3D3D3D3D0D0A000000000D0A3D3D77
:10274C003D3D3D3D3D3D3D3D3D3D3D3D3D3D3D3DAD
:10275C003D3D3D3D3D3D3D3D3D3D3D3D3D3D3D5486
:10276C0045535420323D3D3D3D3D3D3D3D3D3D3D80
:10277C003D3D3D3D3D3D3D3D3D3D3D3D3D3D3D3D7D
:10278C003D3D3D3D3D3D3D3D3D3D0D0A00000000C4
:10279C000D0A3D3D3D3D3D3D3D3D3D3D3D3D3D3DC0
:1027AC003D3D3D3D3D3D3D3D3D3D3D3D3D3D3D3D4D
:1027BC003D3D3D5445535420333D3D3D3D3D3D3D18
:1027CC003D3D3D3D3D3D3D3D3D3D3D3D3D3D3D3D2D
:1027DC003D3D3D3D3D3D3D3D3D3D3D3D3D3D0D0A80
:1027EC00000000000D0A3D3D3D3D3D3D3D3D3D3D64
:1027FC003D3D3D3D3D3D3D3D3D3D3D3D3D3D3D3DFD
:10280C003D3D3D3D3D3D3D5445535420343D3D3DC6
:10281C003D3D3D3D3D3D3D3D3D3D3D3D3D3D3D3DDC
:10282C003D3D3D3D3D3D3D3D3D3D3D3D3D3D3D3DCC
:10283C003D3D0D0A000000000D0A3D3D3D3D3D3D76
:10284C003D3D3D3D3D3D3D3D3D3D3D3D3D3D3D3DAC
:10285C003D3D3D3D3D3D3D3D3D3D3D3D3D3D3D3D9C
:10286C003D3D3D3D5445535420352841455332356B
:10287C0036293D3D3D3D3D3D3D3D3D3D3D3D3D3D97
:10288C003D3D3D3D3D3D3D3D3D3D3D3D3D3D3D3D6C
:10289C003D3D3D3D3D3D3D3D3D3D0D0A00000000B3
:1028AC000D0A3D3D3D3D3D3D3D3D3D3D3D3D3D3DAF
:1028BC003D3D3D3D3D3D3D3D3D3D3D3D3D3D3D3D3C
:1028CC003D3D3D3D3D3D3D3D3D3D3D3D54455354E0
:1028DC00203628414553323536293D3D3D3D3D3D61
:1028EC003D3D3D3D3D3D3D3D3D3D3D3D3D3D3D3D0C
:1028FC003D3D3D3D3D3D3D3D3D3D3D3D3D3D3D3DFC
:10290C003D3D0D0A000000003D3D3D3D3D3D3D3D42
:10291C003D3D3D3D3D3D3D3D3D3D3D3D3D3D3D3DDB
:10292C003D3D3D3D3D3D3D50524553454E5420545B
:10293C004553543D3D3D3D3D3D3D3D3D3D3D3D3D86
:10294C003D3D3D3D3D3D3D3D3D3D3D3D3D3D3D3DAB
:10295C003D3D3D3D3D3D3D3D0D0A0000600000000C
:10296C002003000070000000F002000002000000D4
:10297C000D0200000C000000EC010000080000003B
:10298C0046000000100000004000000002000000A3
:10299C0030000000080000002800000008000000C3
:1029AC00B800000010000000B000000002000000A1
:1029BC0082000000060000007E0000003D3D3D3D11
:1029CC003D3D3D3D3D3D3D3D3D3D3D3D3D3D3D3D2B
:1029DC003D3D3D3D3D3D3D3D50524553454E5420C2
:1029EC00454E435259505454494F4E3D3D3D3D3D4B
:1029FC003D3D3D3D3D3D3D3D3D3D3D3D3D3D3D3DFB
:102A0C003D3D3D3D3D3D3D3D3D0D0A003D3D3D3D8A
:102A1C003D3D3D3D3D3D3D3D3D3D3D3D3D3D3D3DDA
:102A2C003D3D3D3D3D3D3D3D50524553454E542071
:102A3C004445435259505454494F4E3D3D3D3D3D04
:102A4C003D3D3D3D3D3D3D3D3D3D3D3D3D3D3D3DAA
:102A5C003D3D3D3D3D3D3D3D3D0D0A000D0A504C7B
:102A6C0041494E5F54455854202836342D626974C0
:102A7C0029203A20000000004B4559202838302DE1
:102A8C0062697429203A2000524553554C54202831
:102A9C0036342D62697429203A2000000D0A3D3D20
:102AAC003D3D3D3D3D3D3D3D3D3D3D3D3D3D3D3D4A
:102ABC003D3D3D3D3D3D3D3D3D3D3D3D3D3D3D3D3A
:102ACC003D3D3D3D3D3D3D3D3D3D3D3D3D3D3D3D2A
:102ADC003D3D3D3D3D3D3D3D3D3D3D3D3D3D3D3D1A
:102AEC003D3D3D3D3D3D3D3D3D3D0D0A0000000061
:102AFC00600000002003000070000000F0020000E5
:102B0C00020000000D0200000C000000EC010000AF
:102B1C00080000004600000010000000400000000B
:102B2C000200000030000000080000002800000037
:102B3C0008000000B800000010000000B000000009
:102B4C000200000082000000060000007E00000071
:102B5C003D3D3D3D3D3D3D3D3D3D3D3D3D3D3D3D99
:102B6C003D3D3D3D3D3D3D3D3D3D3D3D4145533173
:102B7C00323820454E435259505454494F4E3D3DE6
:102B8C003D3D3D3D3D3D3D3D3D3D3D3D3D3D3D3D69
:102B9C003D3D3D3D3D3D3D3D3D3D3D3D0D0A000036
:102BAC003D3D3D3D3D3D3D3D3D3D3D3D3D3D3D3D49
:102BBC003D3D3D3D3D3D3D3D3D3D3D3D4145533123
:102BCC003238204445435259505454494F4E3D3DA0
:102BDC003D3D3D3D3D3D3D3D3D3D3D3D3D3D3D3D19
:102BEC003D3D3D3D3D3D3D3D3D3D3D3D0D0A0000E6
:102BFC000D0A504C41494E5F5445585420283132EF
:102C0C00382D62697429203A200000004B45592068
:102C1C00283132382D62697429203A2000000000D6
:102C2C00524553554C5420283132382D6269742941
:102C3C00203A20000D0A3D3D3D3D3D3D3D3D3D3D95
:102C4C003D3D3D3D3D3D3D3D3D3D3D3D3D3D3D3DA8
:102C5C003D3D3D3D3D3D3D3D3D3D3D3D3D3D3D3D98
:102C6C003D3D3D3D3D3D3D3D3D3D3D3D3D3D3D3D88
:102C7C003D3D3D3D3D3D3D3D3D3D3D3D3D3D3D3D78
:102C8C003D3D0D0A000000003D3D3D3D3D3D3D3DBF
:102C9C003D3D3D3D3D3D3D3D3D3D3D3D3D3D3D3D58
:102CAC003D3D3D3D3D3D3D3D3D3D3D3D3D3D41453C
:102CBC005332353620454E435259505454494F4E99
:102CCC003D3D3D3D3D3D3D3D3D3D3D3D3D3D3D3D28
:102CDC003D3D3D3D3D3D3D3D3D3D3D3D3D3D3D3D18
:102CEC003D3D3D3D3D3D3D3D0D0A00003D3D3D3DE5
:102CFC003D3D3D3D3D3D3D3D3D3D3D3D3D3D3D3DF8
:102D0C003D3D3D3D3D3D3D3D3D3D3D3D3D3D3D3DE7
:102D1C003D3D41455332353620444543525950547C
:102D2C0054494F4E3D3D3D3D3D3D3D3D3D3D3D3D81
:102D3C003D3D3D3D3D3D3D3D3D3D3D3D3D3D3D3DB7
:102D4C003D3D3D3D3D3D3D3D3D3D3D3D0D0A000084
:102D5C004B455920283235362D62697429203A208A
:102D6C00000000000D0A3D3D3D3D3D3D3D3D3D3DDE
:102D7C003D3D3D3D3D3D3D3D3D3D3D3D3D3D3D3D77
:102D8C003D3D3D3D3D3D3D3D3D3D3D3D3D3D3D3D67
:102D9C003D3D3D3D3D3D3D3D3D3D3D3D3D3D3D3D57
:102DAC003D3D3D3D3D3D3D3D3D3D3D3D3D3D3D3D47
:102DBC003D3D3D3D3D3D3D3D3D3D3D3D3D3D3D3D37
:102DCC003D3D3D3D3D3D0D0A000000006000000012
:102DDC002003000070000000F00200000200000060
:102DEC000D0200000C000000EC01000008000000C7
:102DFC00460000001000000040000000020000002F
:102E0C00300000000800000028000000080000004E
:102E1C00B800000010000000B0000000020000002C
:102E2C0082000000060000007E0000002000000070
:102E3C003031323334353637383961626364656624
:072E4C00000000000D0A0068
:042E5400000000007A
:0200000480007A
:100000006F00400B130000001300000013000000FD
:100010001300000013000000130000001300000094
:10002000232E11FE232C51FE232A61FE232871FE6C
:100030002326A1FE2324B1FE2322C1FE2320D1FECC
:10004000232EE1FC232CF1FC232A01FD232811FDA2
:100050002326C1FD2324D1FD2322E1FD2320F1FD30
:10006000130101FC971000C0E780C0E38320C103A7
:100070008322810303234103832301030325C10258
:100080008325810203264102832601020327C10141
:10009000832781010328410183280101032EC10028
:1000A000832E8100032F4100832F010013010104DF
:1000B00073002030973100C09381415A171100001E
:1000C00013014188173500C0130545D9973500C085
:1000D0009385C5D86308B5002320050013054500A6
:1000E0006FF05FFF173500C0130505D71301C1FF7F
:1000F000973500C0938545D6630EB500832605006D
:10010000130545002320A100E78006000325010018
:100110006FF01FFE1301410037150000130505881D
:1001200073104530372500001305858073100530A6
:0C013000970000C0E78080586F000000BE
:040000058000000077
:00000001FF
